:100000000C9475000C9492000C9492000C94920045
:100010000C9492000C94D7010C9492000C949200D2
:100020000C9492000C9492000C9492000C94920008
:100030000C9492000C944C020C9492000C9492003C
:100040000C9492000C9492000C948D030C949200EA
:100050000C9492000C9404030C9492000C94920063
:100060000C9492000C94920007634236B79BD8A779
:100070001A39685618AEBAAB558C1D3CB7CC5763CD
:10008000BD6DEDFD753EF6177231BF000000803F7B
:1000900008000000BE922449123EABAAAA2ABECD97
:1000A000CCCC4C3E00000080BEABAAAAAA3E000009
:1000B0000000BF000000803F000000000008417801
:1000C000D3BB4387D1133D190E3CC3BD4282AD2B38
:1000D0003E68EC8276BED98FE1A93E4C80EFFFBE30
:1000E00001C4FF7F3F000000000011241FBECFEFBE
:1000F000D8E0DEBFCDBF11E0A0E0B1E0EAEBF1E176
:1001000002C005900D92A635B107D9F721E0A6E50A
:10011000B1E001C01D92AA38B207E1F70E94E004E5
:100120000C94DB080C940000ECEBF0E0108294EAF5
:10013000908390819923ECF79091B900987F983043
:10014000A1F48093BB0084E88093BC00ECEBF0E06A
:1001500080818823ECF79091B900987F983139F02D
:1001600081E0903429F480E0089581E0089580E0F2
:1001700008958093BB0084E88093BC00ECEBF0E032
:1001800080818823ECF79091B900987F81E09832C4
:1001900009F480E0089584EC8093BC00ECEBF0E07F
:1001A00080818823ECF78091BB00089584E88093D8
:1001B000BC00ECEBF0E080818823ECF78091BB0081
:1001C000089584E98093BC000895982F92959F70BC
:1001D000990F292F220F220F920F8F70890F0895E8
:1001E0009DEC899F912D1124969596959695392F82
:1001F000330F232F220F220F230F821B20E1929F08
:10020000800D112408951F93CF93DF93C82FD62F0D
:10021000142F80ED0E94940080E00E94B900812F8D
:100220000E94F0000E94B9008D2F0E94F0000E94F1
:10023000B9008C2F0E94F0000E94B9000E94E100DA
:10024000DF91CF911F910895EF92FF920F931F932B
:10025000CF93DF93EC018B017A0180ED0E94940033
:1002600080E00E94B9000E94E10081ED0E949400AC
:100270000E94CB000E94E500F70180830E94CB0022
:100280000E94E500F80180830E94D6008F730E94CF
:10029000E50088830E94E100DF91CF911F910F91CB
:1002A000FF90EF900895CF9380ED0E94940083E03B
:1002B0000E94B9000E94E10081ED0E9494000E941A
:1002C000D60087700E94E500C82F0E94E1008C2FA5
:1002D000CF910895399A39988AB180658AB98AB1DF
:1002E000837F8AB941985C9A5E988BB18C608BB998
:1002F000E8E6F0E0808184608083EDE6F0E08081D4
:100300008062808308950F931F93CF93DF930AE752
:1003100011E0C1E0D0E0CE010E94B108F801819364
:100320008F012196C830D105B1F702E711E0CE0167
:100330000E94B108F80181938F012196CF30D10539
:10034000B1F70BE611E0CE010E94B108F8018193EC
:100350008F012196C631D105B1F786E190E00E9468
:10036000B10880937901DF91CF911F910F9108958A
:1003700047E050E061E070E08AE791E00E94B90850
:1003800047E050E068E070E082E791E00E94B90841
:1003900047E050E06FE070E08BE691E00E94B90822
:1003A0006091790186E190E00E94C90808951F924A
:1003B0000F920FB60F9211248F93599B04C081E0C6
:1003C0008093590102C0109259018F910F900FBE76
:1003D0000F901F901895E0E8F0E08081806880839E
:1003E00080818F7B808380818260808380818E7F0B
:1003F0008083E1E8F0E08081806180838081886093
:1004000080838081816080838081897F8083EFE623
:10041000F0E08081816080838FEF9FEF9093870071
:100420008093860010928900109288000895CF93DF
:10043000DF93E0E8F0E080818068808380818F7BBB
:10044000808380818D7F808380818E7F8083A1E8FF
:10045000B0E08C918F7E8C938C91877F8C93C2E8D7
:10046000D0E08881806888838081826080838081F9
:100470008E7F80838C9180618C938C9188608C932B
:10048000DF91CF910895E0E8F0E080818F7780835D
:1004900080818F7B808308951F920F920FB60F92F9
:1004A00011242F933F934F935F936F937F938F9379
:1004B0009F93AF93BF93EF93FF93809156018F5F0C
:1004C000809356018A3781F410925601419A42E88E
:1004D00051E065E871E083E891E00E9424010E9408
:1004E00053018093890141988091580181113EC048
:1004F0008091890190E0FC01EC59FE4F3081209100
:100500008301321354C0FC01E35AFE4F9081809165
:10051000850198134CC081E08093580110928900A6
:10052000109288006091790170E080E090E00E9474
:10053000F10520E030E040E752E40E947F0620E031
:1005400030E040E857E30E947F062DEB37E346E8B2
:100550005BE30E9450050E94C2056093880183E01E
:100560008093810180915801882309F1809157017E
:10057000811110925801209188003091890080915A
:10058000880190E0280F391F2F3F3F4F49F0E8E8DE
:10059000F0E020813181820F931F918380830CC012
:1005A0008FEF9FEF909389008093880005C0EAE762
:1005B000F0E0808180648083FF91EF91BF91AF91E3
:1005C0009F918F917F916F915F914F913F912F916B
:1005D0000F900FBE0F901F901895ECE7F0E0808110
:1005E0008F7B808380818F7D80838081807F8083EB
:1005F000EAE7F0E08081876080838081886880837B
:1006000080818064808308951F920F920FB60F92AD
:1006100011242F933F934F935F936F937F938F9307
:100620009F93AF93BF93EF93FF9360917800709186
:10063000790070935C0160935B0180E090E00E9420
:10064000F10520E030E040E85CE30E947F069B017A
:10065000AC0160E070E080E090E40E94EC0620E0F5
:1006600030E040E85FE30E94E3040E94C20570931B
:10067000890060938800FF91EF91BF91AF919F91A6
:100680008F917F916F915F914F913F912F910F903B
:100690000FBE0F901F90189589E190E09093C500D0
:1006A0008093C400E0ECF0E080818D7F8083A1EC3A
:1006B000B0E08C9188618C93E2ECF0E080818F73E4
:1006C000808380818F7C80838081877F80838C91F1
:1006D0008B7F8C938081866080830895E0ECF0E0CE
:1006E000908195FFFDCF8093C6000895CF93DF934F
:1006F000EC018881882331F021960E946E03899154
:100700008111FBCFDF91CF910895E0ECF0E0808183
:100710008823ECF78091C60008951F920F920FB6C0
:100720000F9211242F933F934F935F936F937F9377
:100730008F939F93AF93BF93EF93FF938091C600E6
:1007400090910001992361F0982F96959695969532
:10075000909384018770809387011092000105C0F7
:100760008093860181E08093000180918401833031
:10077000D9F028F4813049F0823089F038C08530D2
:1007800029F1D8F0863059F132C0E0918701F0E0CC
:10079000E658FE4F809186018170808328C0809149
:1007A00086018093790123C0E0918701F0E0EE5843
:1007B000FE4F8091860180831AC0E0918701F0E0AE
:1007C000E559FE4F80918601808311C040918201DE
:1007D00060918501809186010E94030108C04091CB
:1007E000820160918601809183010E9403010E9431
:1007F000B801FF91EF91BF91AF919F918F917F9140
:100800006F915F914F913F912F910F900FBE0F907D
:100810001F901895CF93DF9300D000D000D0CDB7B4
:10082000DEB7F8945C985E9A81E091E00E947603CE
:100830000E9485038F3421F40E9485038B3461F07C
:100840005C9A2FEF89E698E1215080409040E1F7D3
:1008500000C000005C985E9A2AE030E0AE014F5F75
:100860005F4F60E076E980E090E00E94710886E0EA
:1008700091E00E947603CE0101960E9476038FE0FC
:1008800091E00E94760386E191E00E94760382E285
:1008900091E00E94760381E391E00E9476038AE36F
:1008A00091E00E94760383E191E00E94760388E460
:1008B00091E00E94760381E591E00E94760383E156
:1008C00091E00E9476032FEF83EC99E02150804065
:1008D0009040E1F700C000005E985C9A78942696FC
:1008E0000FB6F894DEBF0FBECDBFDF91CF91089554
:1008F00080918101823081F128F4882349F0813090
:10090000C1F05BC0833009F44EC08430C1F155C0E2
:100910000E946A010E9483010E94EB010E94ED0285
:100920000E944C030E940A04789481E08093810124
:1009300008950E94430280915B0190915C010397AE
:1009400018F082E08093810180915A018823B9F1E7
:1009500084E08093810108950E94170280915B01D9
:1009600090915C01029718F481E08093810180915D
:100970005A01882321F184E08093810108955C98D5
:100980007894E1ECF0E08081806C80838091590163
:100990008111FECFE1ECF0E080818F7380831092B3
:1009A0005A015C9A0895EAE7F0E08081877F8083AE
:1009B0001092890010928800089510928101089584
:1009C0000E947804FDCF5058BB27AA270E94FB0441
:1009D0000C9445060E94370638F00E943E0620F02F
:1009E00039F49F3F19F426F40C9434060EF4E09584
:1009F000E7FB0C942E06E92F0E94560658F3BA170F
:100A0000620773078407950720F079F4A6F50C9424
:100A100078060EF4E0950B2EBA2FA02D0B01B9012C
:100A200090010C01CA01A0011124FF27591B99F064
:100A3000593F50F4503E68F11A16F040A22F232F70
:100A4000342F4427585FF3CF469537952795A795C0
:100A5000F0405395C9F77EF41F16BA0B620B730B67
:100A6000840BBAF09150A1F0FF0FBB1F661F771FD8
:100A7000881FC2F70EC0BA0F621F731F841F48F48D
:100A8000879577956795B795F7959E3F08F0B0CF16
:100A90009395880F08F09927EE0F979587950895FD
:100AA0000E9464050C9445060E943E0658F00E9480
:100AB000370640F029F45F3F29F00C942E065111BF
:100AC0000C9479060C9434060E94560668F3992318
:100AD000B1F3552391F3951B550BBB27AA2762173A
:100AE0007307840738F09F5F5F4F220F331F441F47
:100AF000AA1FA9F335D00E2E3AF0E0E832D091507B
:100B00005040E695001CCAF72BD0FE2F29D0660F67
:100B1000771F881FBB1F261737074807AB07B0E8AA
:100B200009F0BB0B802DBF01FF2793585F4F3AF0B0
:100B30009E3F510578F00C942E060C9479065F3F89
:100B4000E4F3983ED4F3869577956795B795F79536
:100B50009F5FC9F7880F911D9695879597F908951E
:100B6000E1E0660F771F881FBB1F621773078407BA
:100B7000BA0720F0621B730B840BBA0BEE1F88F7C9
:100B8000E09508950E945E0688F09F5798F0B92F6F
:100B90009927B751B0F0E1F0660F771F881F991FB2
:100BA0001AF0BA95C9F714C0B13091F00E947806D6
:100BB000B1E008950C947806672F782F8827B85FE6
:100BC00039F0B93FCCF3869577956795B395D9F70A
:100BD0003EF490958095709561957F4F8F4F9F4F14
:100BE0000895E89409C097FB3EF490958095709520
:100BF00061957F4F8F4F9F4F9923A9F0F92F96E969
:100C0000BB279395F695879577956795B795F111DD
:100C1000F8CFFAF4BB0F11F460FF1BC06F5F7F4F7A
:100C20008F4F9F4F16C0882311F096E911C077238C
:100C300021F09EE8872F762F05C0662371F096E895
:100C4000862F70E060E02AF09A95660F771F881F64
:100C5000DAF7880F9695879597F9089597F99F6722
:100C600080E870E060E008959FEF80EC0895002434
:100C70000A941616170618060906089500240A9401
:100C800012161306140605060895092E0394000C87
:100C900011F4882352F0BB0F40F4BF2B11F460FF16
:100CA00004C06F5F7F4F8F4F9F4F089557FD90583F
:100CB000440F551F59F05F3F71F04795880F97FB20
:100CC000991F61F09F3F79F08795089512161306DA
:100CD0001406551FF2CF4695F1DF08C01616170609
:100CE0001806991FF1CF869571056105089408953E
:100CF000E894BB2766277727CB0197F908950E94D0
:100D000092060C9445060E94370638F00E943E0673
:100D100020F0952311F00C942E060C943406112427
:100D20000C9479060E94560670F3959FC1F3950FB7
:100D300050E0551F629FF001729FBB27F00DB11D5F
:100D4000639FAA27F00DB11DAA1F649F6627B00DEF
:100D5000A11D661F829F2227B00DA11D621F739FD8
:100D6000B00DA11D621F839FA00D611D221F749FE6
:100D70003327A00D611D231F849F600D211D822F2D
:100D8000762F6A2F11249F5750409AF0F1F0882354
:100D90004AF0EE0FFF1FBB1F661F771F881F915081
:100DA0005040A9F79E3F510580F00C942E060C94FC
:100DB00079065F3FE4F3983ED4F38695779567957F
:100DC000B795F795E7959F5FC1F7FE2B880F911DAB
:100DD0009695879597F90895FA01EE0FFF1F3096C3
:100DE00021053105A1F16115710561F48038BFE37A
:100DF0009B0749F168949038810561F08038BFEF16
:100E00009B0741F099234AF5FF3FE1053105210594
:100E100019F1E8940894E795D901AA2329F4AB2F96
:100E2000BE2FF85FD0F310C0FF5F70F4A695E0F717
:100E3000F73950F019F0FF3A38F49F779F930DD0AF
:100E40000F9007FC9058089546F00C94340660E02B
:100E500070E080E89FE308954FE79F775F934F939B
:100E60003F932F930E94E7072F913F914F915F91FE
:100E70000E947F060C94440729F416F00C942E0669
:100E80000C9478060C9434060E945E06A8F39638FB
:100E9000A0F707F80F92E8942BE33AEA48EB5FE7F4
:100EA0000E9495060F920F920F924DB75EB70F9268
:100EB0000E942F08E8E6F0E00E9476074F915F91CC
:100EC000EF91FF91E595EE1FFF1F49F0FE57E06897
:100ED0004427EE0F441FFA95E1F74195550B0E9408
:100EE000A9070F9007FE0C949D070895DF93CF93F9
:100EF0001F930F93FF92EF92DF927B018C01689416
:100F000006C0DA2EEF010E949206FE01E894A59138
:100F10002591359145915591A6F3EF010E94FB046F
:100F2000FE019701A801DA9469F7DF90EF90FF9036
:100F30000F911F91CF91DF9108959B01AC0160E06B
:100F400070E080E89FE30C9450050C942E060C94FE
:100F500063080E945E06D8F39923C9F3940F511DCC
:100F6000A3F39150504094F059F0882332F0660F6B
:100F7000771F881F91505040C1F79E3F51052CF7B5
:100F8000880F911D9695879597F908955F3FACF06E
:100F9000983E9CF0BB27869577956795B79508F4A2
:100FA000B1609395C1F7BB0F58F711F460FFE8CF1C
:100FB0006F5F7F4F8F4F9F4FE3CF0C94790616F0F2
:100FC0000C9463080C94340668940C942E060E94CA
:100FD0005E06A8F39923C1F3AEF3DF93CF931F937B
:100FE0000F93FF92C92FDD2788232AF02197660FE0
:100FF000771F881FDAF720E030E040E85FEB9FE3DF
:10100000883920F0803E38F021968F770E94E404E2
:10101000E0E9F0E004C00E94E404EDEBF0E00E949F
:1010200076078B01BE01EC01FB2E6F577109759598
:10103000771F880B990B0E94F30528E132E741E303
:101040005FE30E949206AF2D9801AE01FF900F91D1
:101050001F91CF91DF910E94FB040C944506FA0189
:10106000DC01AA0FBB1F9B01AC01BF5728F422274C
:1010700033274427507820C0B75190F4AB2F002479
:10108000469537952795011CA395D2F3002071F062
:10109000220F331F441FB395DAF30ED00C94E304F0
:1010A00061307105A0E88A07B94630F49B01AC01B4
:1010B0006627772788279078309621F02083318320
:1010C0004283538308959F3F31F0915020F48795D8
:1010D00077956795B795880F911D9695879597F9A0
:1010E00008954532510520F4423010F00C947C08EC
:1010F000FB011082CB010895BB274A3031F49923BC
:1011000022F4BDE2909581959F4F0C948808BB27EF
:10111000FB015527AA27880F991FAA1FA41710F0B3
:10112000A41B83955051B9F7A05DAA3308F0A95DBF
:10113000A193009779F7B111B1931192CB010C945F
:10114000A108DC01FC01672F71917723E1F7329749
:1011500004C07C916D9370836291AE17BF07C8F392
:101160000895F999FECF92BD81BDF89A992780B56F
:101170000895DC01A40FB51F4150504048F0CB0149
:10118000840F951F2E910E94CA0841505040D0F7FD
:101190000895262FF999FECF92BD81BDF89A019747
:1011A00000B4021639F01FBA20BD0FB6F894FA9AAF
:0A11B000F99A0FBE0895F894FFCFDE
:1011BA000141540D0A0041542B554152543D002C13
:1011CA00312C300D0A0041542B524F4C453D300D05
:1011DA000A0041542B504F4C41523D302C310D0ADC
:1011EA000041542B4E414D453D0057616B652075BA
:1011FA0070206C696768740041542B505357443D02
:06120A0000313233340014
:00000001FF
