S02200004C4544206C6967687420616C61726D20636C6F636B20636F64652E73726563E1
S11300000C9475000C9492000C9492000C94920041
S11300100C9492000C94BE010C9492000C949200E7
S11300200C9492000C9492000C9492000C94920004
S11300300C9492000C94D2010C9492000C949200B3
S11300400C9492000C9492000C948F030C949200E4
S11300500C9492000C9426020C9492000C9492003E
S11300600C9492000C94920007634236B79BD8A775
S11300701A39685618AEBAAB558C1D3CB7CC5763C9
S1130080BD6DEDFD753EF6177231BF000000803F77
S113009008000000BE922449123EABAAAA2ABECD93
S11300A0CCCC4C3E00000080BEABAAAAAA3E000005
S11300B00000BF000000803F0000000000084178FD
S11300C0D3BB4387D1133D190E3CC3BD4282AD2B34
S11300D03E68EC8276BED98FE1A93E4C80EFFFBE2C
S11300E001C4FF7F3F000000000011241FBECFEFBA
S11300F0D8E0DEBFCDBF11E0A0E0B1E0E8E0F0E180
S113010002C005900D92AE3FB107D9F722E0AEEFE1
S1130110B1E001C01D92A831B207E1F70E94A70225
S11301200C9402080C940000ECEBF0E0108294EACA
S1130130908390819923ECF79091B900987F98303F
S1130140A1F48093BB0084E88093BC00ECEBF0E066
S113015080818823ECF79091B900987F983139F029
S113016081E0903429F480E0089581E0089580E0EE
S113017008958093BB0084E88093BC00ECEBF0E02E
S113018080818823ECF79091B900987F81E09832C0
S113019009F480E0089584EC8093BC00ECEBF0E07B
S11301A080818823ECF78091BB00089584E88093D4
S11301B0BC00ECEBF0E080818823ECF78091BB007D
S11301C0089584E98093BC000895982F92959F70B8
S11301D0990F292F220F220F920F8F70890F0895E4
S11301E09DEC899F912D1124969596959695392F7E
S11301F0330F232F220F220F230F821B20E1929F04
S1130200800D112408951F93CF93DF93C82FD62F09
S1130210142F80ED0E94940080E00E94B900812F89
S11302200E94F0000E94B9008D2F0E94F0000E94ED
S1130230B9008C2F0E94F0000E94B9000E94E100D6
S1130240DF91CF911F910895EF92FF920F931F9327
S1130250CF93DF93EC018B017A0180ED0E9494002F
S113026080E00E94B9000E94E10081ED0E949400A8
S11302700E94CB000E94E500F70180830E94CB001E
S11302800E94E500F80180830E94D6008F730E94CB
S1130290E50088830E94E100DF91CF911F910F91C7
S11302A0FF90EF900895CF9380ED0E94940083E037
S11302B00E94B9000E94E10081ED0E9494000E9416
S11302C0D60087700E94E500C82F0E94E1008C2FA1
S11302D0CF9108950F931F93CF93DF9300E111E023
S11302E0C1E0D0E0CE010E94D807F80181938F01CC
S11302F02196C830D105B1F708E011E0CE010E9483
S1130300D807F80181938F012196CF30D105B1F739
S113031001E011E0CE010E94D807F80181938F011A
S11303202196C631D105B1F786E190E00E94D80745
S113033080930F01DF91CF911F910F91089547E0B2
S113034050E061E070E080E191E00E94E00747E066
S113035050E068E070E088E091E00E94E00747E048
S113036050E06FE070E081E091E00E94E00760916E
S11303700F0186E190E00E94F00708951F920F920A
S11303800FB60F9211248F93599B04C081E0809380
S1130390FF0102C01092FF018F910F900FBE0F90CA
S11303A01F9018951F920F920FB60F9211242F933E
S11303B03F934F935F936F937F938F939F93AF93E9
S11303C0BF93EF93FF938091FE018F5F8093FE01B3
S11303D08A3781F41092FE01419A41E152E064E1CE
S11303E072E082E192E00E9424010E945301809312
S11303F0170241988091170290E0FC01E75FFD4FDE
S113040030812091120232130BC0FC01EE5FFD4FCC
S1130410908180911402981303C083E080931002AA
S1130420EAE7F0E0808180648083FF91EF91BF91DF
S1130430AF919F918F917F916F915F914F913F9178
S11304402F910F900FBE0F901F9018951F920F922F
S11304500FB60F9211242F933F934F935F936F9393
S11304607F938F939F93AF93BF93EF93FF93609189
S1130470780070917900709301026093000280E02B
S113048090E00E94A60420E030E040E85CE30E9493
S113049034059B01AC0160E070E080E090E40E94D0
S11304A0A10520E030E040E85FE30E940A040E94D6
S11304B077047093890060938800FF91EF91BF9156
S11304C0AF919F918F917F916F915F914F913F91E8
S11304D02F910F900FBE0F901F90189589E190E017
S11304E09093C5008093C400E0ECF0E080818D7FA0
S11304F08083A1ECB0E08C9188618C93E2ECF0E015
S113050080818F73808380818F7C80838081877FCB
S113051080838C918B7F8C93808186608083089507
S1130520E0ECF0E0908195FFFDCF8093C600089544
S1130530CF93DF93EC018881882331F021960E94C8
S1130540900289918111FBCFDF91CF910895CF93D0
S1130550DF93CDB7DEB72F970FB6F894DEBF0FBE8B
S1130560CDBF0E946E0287E191E00E94980288E26A
S113057091E00E9498020E949F018BE391E00E9407
S11305809802809102014AE050E0BE016F5F7F4F04
S113059090E00E949807CE0101960E9498020F2EC7
S11305A0F0E1CF2EF1E0DF2EF02D0F2EF8E0EF2E4C
S11305B0F1E0FF2EF02D01E011E00F2EF7E1AF2E58
S11305C0F1E0BF2EF02DC8019701F6011192D90177
S11305D01D929D01DC011D92CD01EA15FB05B1F7C9
S11305E010920F0184E491E00E949802809102012C
S11305F04AE050E0BE016F5F7F4F90E00E94980791
S1130600CE0101960E94980283E591E00E9498022F
S11306100E946A018BE391E00E94980284E691E0D3
S11306200E949802F60181916F014AE050E0BE01F8
S11306306F5F7F4F90E00E949807CE0101960E9461
S1130640980283E791E00E949802CA14DB0451F7F0
S113065086E791E00E9498028AE791E00E9498025E
S113066080910F014AE050E0BE016F5F7F4F90E040
S11306700E949807CE0101960E94980286E791E0B5
S11306800E9498028EE891E00E9498020F2EFFE0EB
S1130690CF2EF1E0DF2EF02DD7018D917D014AE0C0
S11306A050E0BE016F5F7F4F90E00E949807CE013B
S11306B001960E94980283E791E00E949802CE146A
S11306C0DF0451F786E791E00E9498028CE991E0FB
S11306D00E9498020F2EF8E0EF2EF1E0FF2EF02D8D
S11306E0F80181918F014AE050E0BE016F5F7F4FB6
S11306F090E00E949807CE0101960E94980283E739
S113070091E00E949802E016F10651F786E791E025
S11307100E9498028BEA91E00E949802FFCF1F92F8
S11307200F920FB60F9211242F933F934F935F9321
S11307306F937F938F939F93AF93BF93EF93FF93A5
S11307408091C60090910001992361F0982F9695AD
S11307509695969590931302877080931602109243
S1130760000105C08093150281E08093000180910F
S113077013028330D9F028F4813049F0823089F0B3
S113078038C0853029F1D8F0863059F132C0E09173
S11307901602F0E0E05FFE4F8091150281708083C5
S11307A028C08091150280930F0123C0E0911602A6
S11307B0F0E0E85FFE4F8091150280831AC0E0915B
S11307C01602F0E0EF5FFE4F80911502808311C0A6
S11307D04091110260911402809115020E9403015C
S11307E008C04091110260911502809112020E948A
S11307F00301FF91EF91BF91AF919F918F917F91F1
S11308006F915F914F913F912F910F900FBE0F9079
S11308101F9018955058BB27AA270E9422040C94B5
S1130820FA040E94EC0438F00E94F30420F039F436
S11308309F3F19F426F40C94E9040EF4E095E7FBC9
S11308400C94E304E92F0E940B0558F3BA176207CE
S113085073078407950720F079F4A6F50C942D0509
S11308600EF4E0950B2EBA2FA02D0B01B9019001C7
S11308700C01CA01A0011124FF27591B99F0593F0B
S113088050F4503E68F11A16F040A22F232F342F53
S11308904427585FF3CF469537952795A795F040A1
S11308A05395C9F77EF41F16BA0B620B730B840BB6
S11308B0BAF09150A1F0FF0FBB1F661F771F881F6E
S11308C0C2F70EC0BA0F621F731F841F48F48795C6
S11308D077956795B795F7959E3F08F0B0CF9395B8
S11308E0880F08F09927EE0F9795879508950E9431
S11308F0130588F09F5798F0B92F9927B751B0F096
S1130900E1F0660F771F881F991F1AF0BA95C9F78F
S113091014C0B13091F00E942D05B1E008950C94FB
S11309202D05672F782F8827B85F39F0B93FCCF3AE
S1130930869577956795B395D9F73EF4909580950C
S1130940709561957F4F8F4F9F4F0895E89409C02C
S113095097FB3EF490958095709561957F4F8F4FEE
S11309609F4F9923A9F0F92F96E9BB279395F69504
S1130970879577956795B795F111F8CFFAF4BB0F82
S113098011F460FF1BC06F5F7F4F8F4F9F4F16C0E6
S1130990882311F096E911C0772321F09EE8872F70
S11309A0762F05C0662371F096E8862F70E060E02C
S11309B02AF09A95660F771F881FDAF7880F9695A5
S11309C0879597F9089597F99F6780E870E060E04C
S11309D008959FEF80EC089500240A9416161706D4
S11309E018060906089500240A941216130614061C
S11309F005060895092E0394000C11F4882352F07F
S1130A00BB0F40F4BF2B11F460FF04C06F5F7F4F36
S1130A108F4F9F4F089557FD9058440F551F59F01D
S1130A205F3F71F04795880F97FB991F61F09F3FD7
S1130A3079F087950895121613061406551FF2CF00
S1130A404695F1DF08C0161617061806991FF1CF50
S1130A5086957105610508940895E894BB27662777
S1130A607727CB0197F908950E9447050C94FA045F
S1130A700E94EC0438F00E94F30420F0952311F056
S1130A800C94E3040C94E90411240C942E050E94A4
S1130A900B0570F3959FC1F3950F50E0551F629FAE
S1130AA0F001729FBB27F00DB11D639FAA27F00DC3
S1130AB0B11DAA1F649F6627B00DA11D661F829FEA
S1130AC02227B00DA11D621F739FB00DA11D621FCF
S1130AD0839FA00D611D221F749F3327A00D611DEC
S1130AE0231F849F600D211D822F762F6A2F1124CE
S1130AF09F5750409AF0F1F088234AF0EE0FFF1F01
S1130B00BB1F661F771F881F91505040A9F79E3F57
S1130B10510580F00C94E3040C942E055F3FE4F33C
S1130B20983ED4F3869577956795B795F795E795AD
S1130B309F5FC1F7FE2B880F911D9695879597F9B6
S1130B400895FA01EE0FFF1F309621053105A1F13A
S1130B506115710561F48038BFE39B0749F168941E
S1130B609038810561F08038BFEF9B0741F09923ED
S1130B704AF5FF3FE1053105210519F1E894089490
S1130B80E795D901AA2329F4AB2FBE2FF85FD0F340
S1130B9010C0FF5F70F4A695E0F7F73950F019F034
S1130BA0FF3A38F49F779F930DD00F9007FC90582D
S1130BB0089546F00C94E90460E070E080E89FE357
S1130BC008954FE79F775F934F933F932F930E942E
S1130BD09C062F913F914F915F910E9434050C9494
S1130BE0F90529F416F00C94E3040C942D050C94E7
S1130BF0E9040E941305A8F39638A0F707F80F92AA
S1130C00E8942BE33AEA48EB5FE70E944A050F9227
S1130C100F920F924DB75EB70F920E94E406E8E67A
S1130C20F0E00E942B064F915F91EF91FF91E595C3
S1130C30EE1FFF1F49F0FE57E0684427EE0F441FE4
S1130C40FA95E1F74195550B0E945E060F9007FE59
S1130C500C9452060895DF93CF931F930F93FF9242
S1130C60EF92DF927B018C01689406C0DA2EEF01CB
S1130C700E944705FE01E894A5912591359145917F
S1130C805591A6F3EF010E942204FE019701A801E9
S1130C90DA9469F7DF90EF90FF900F911F91CF9155
S1130CA0DF9108959B01AC0160E070E080E89FE370
S1130CB00C9418070C94E3040C948A070E941305FF
S1130CC0D8F39923C9F3940F511DA3F391505040C5
S1130CD094F059F0882332F0660F771F881F9150E3
S1130CE05040C1F79E3F51052CF7880F911D9695F2
S1130CF0879597F908955F3FACF0983E9CF0BB2729
S1130D00869577956795B79508F4B1609395C1F783
S1130D10BB0F58F711F460FFE8CF6F5F7F4F8F4F21
S1130D209F4FE3CF0C942E0516F00C948A070C9475
S1130D30E90468940C94E3040E941305A8F399232E
S1130D40C1F3AEF3DF93CF931F930F93FF92C92F99
S1130D50DD2788232AF02197660F771F881FDAF78B
S1130D6020E030E040E85FEB9FE3883920F0803EEC
S1130D7038F021968F770E940B04E0E9F0E004C07C
S1130D800E940B04EDEBF0E00E942B068B01BE01E8
S1130D90EC01FB2E6F5771097595771F880B990B22
S1130DA00E94A80428E132E741E35FE30E9447057B
S1130DB0AF2D9801AE01FF900F911F91CF91DF915C
S1130DC00E9422040C94FA04FA01DC01AA0FBB1F4E
S1130DD09B01AC01BF5728F42227332744275078BE
S1130DE020C0B75190F4AB2F002446953795279532
S1130DF0011CA395D2F3002071F0220F331F441F6E
S1130E00B395DAF30ED00C940A0461307105A0E8AE
S1130E108A07B94630F49B01AC01662777278827F7
S1130E209078309621F02083318342835383089550
S1130E300E942C070C94FA040E94F30458F00E94B8
S1130E40EC0440F029F45F3F29F00C94E3045111C1
S1130E500C942E050C94E9040E940B0568F3992365
S1130E60B1F3552391F3951B550BBB27AA276217A2
S1130E707307840738F09F5F5F4F220F331F441FAF
S1130E80AA1FA9F335D00E2E3AF0E0E832D09150E3
S1130E905040E695001CCAF72BD0FE2F29D0660FD0
S1130EA0771F881FBB1F261737074807AB07B0E813
S1130EB009F0BB0B802DBF01FF2793585F4F3AF019
S1130EC09E3F510578F00C94E3040C942E055F3F8B
S1130ED0E4F3983ED4F3869577956795B795F7959F
S1130EE09F5FC9F7880F911D9695879597F9089587
S1130EF0E1E0660F771F881FBB1F62177307840723
S1130F00BA0720F0621B730B840BBA0BEE1F88F731
S1130F10E09508959F3F31F0915020F4879577959F
S1130F206795B795880F911D9695879597F90895BC
S1130F304532510520F4423010F00C94A307FB0114
S1130F401082CB010895BB274A3031F4992322F44F
S1130F50BDE2909581959F4F0C94AF07BB27FB0191
S1130F605527AA27880F991FAA1FA41710F0A41B9E
S1130F7083955051B9F7A05DAA3308F0A95DA193F8
S1130F80009779F7B111B1931192CB010C94C80772
S1130F90DC01FC01672F71917723E1F7329704C0DC
S1130FA07C916D9370836291AE17BF07C8F3089567
S1130FB0F999FECF92BD81BDF89A992780B508951D
S1130FC0DC01A40FB51F4150504048F0CB01840F01
S1130FD0951F2E910E94F10741505040D0F708957B
S1130FE0262FF999FECF92BD81BDF89A019700B4DE
S1130FF0021639F01FBA20BD0FB6F894FA9AF99A7E
S10B10000FBE0895F894FFCF20
S1131008010A0C123B2D25210102031617000C0FAF
S113101801000100010001496E697469616C69731A
S11310286174696F6E200A000A4563726974757287
S11310386520454550524F4D200A0053756363E8B7
S113104873200A0052E9696E697469616C6973E90D
S1131058200A004C65637475726520454550524FEB
S11310684D200A000A20616C61726D5F454E203A7A
S1131078200A002C20002E200A000A20616C726DC0
S11310885F6475726174696F6E203A200A000A20E1
S1131098616C726D5F6872203A200A000A20616CE4
S11310A8726D5F6D696E203A200A000A20444F4E23
S11310B8450041540041542B554152543D002C31B4
S11310C82C300041542B524F4C453D300041542B99
S11310D8504F4C41523D302C310041542B4E414D20
S11310E8453D00616C61726D20636C6F636B0041F8
S11110F8542B505357443D0031323334000022
S9030000FC
