:100000000C947C000C9499000C9438050C94990085
:100010000C9499000C944F050C9499000C94990041
:100020000C9499000C9499000C9499000C949900EC
:100030000C9499000C9463050C9499000C9499000D
:100040000C9499000C9499000C94AA060C949900B5
:100050000C9499000C9462060C9499000C949900ED
:100060000C9499000C949900DF06E906EE06F70659
:1000700000070907120707634236B79BD8A71A394A
:10008000685618AEBAAB558C1D3CB7CC5763BD6DE6
:10009000EDFD753EF6177231BF000000803F08008D
:1000A0000000BE922449123EABAAAA2ABECDCCCCF7
:1000B0004C3E00000080BEABAAAAAA3E0000000091
:1000C000BF000000803F0000000000084178D3BB63
:1000D0004387D1133D190E3CC3BD4282AD2B3E6810
:1000E000EC8276BED98FE1A93E4C80EFFFBE01C401
:1000F000FF7F3F000000000011241FBECFEFD8E0BB
:10010000DEBFCDBF12E0A0E0B1E0EEE8F6E102C054
:1001100005900D92AC36B107D9F722E0ACE6B2E01B
:1001200001C01D92A73AB207E1F70E94DC040C94CB
:10013000450B0C94000088E48093B8000895ECEB24
:10014000F0E0108294EA908390819923ECF79091EB
:10015000B900987F9830A1F48093BB0084E8809325
:10016000BC00ECEBF0E080818823ECF79091B900C3
:10017000987F983139F081E0903429F480E0089537
:1001800081E0089580E008958093BB0084E8809327
:10019000BC00ECEBF0E080818823ECF79091B90093
:1001A000987F81E0983209F480E0089584EC809390
:1001B000BC00ECEBF0E080818823ECF78091BB0081
:1001C000089584E88093BC00ECEBF0E08081882304
:1001D000ECF78091BB00089584E98093BC000895FA
:1001E000982F92959F70990F292F220F220F920F0F
:1001F0008F70890F08959DEC899F912D11249695FC
:1002000096959695392F330F232F220F220F230F08
:10021000821B20E1929F800D112408951F93CF939C
:10022000DF93C82FD62F142F80ED0E949F0080E00F
:100230000E94C400812F0E94FB000E94C4008D2FE9
:100240000E94FB000E94C4008C2F0E94FB000E94B1
:10025000C4000E94EC00DF91CF911F910895FF929E
:100260000F931F93CF93DF93062FF42EEC01C05D05
:10027000D740C436D10538F0CC59DF4FC436D1054C
:1002800020F410E004C011E002C0EC0110E080EDA9
:100290000E949F0084E00E94C4008F2D0E94FB00FA
:1002A0000E94C400802F0E94FB00912F97959927F0
:1002B0009795892B0E94C4008C2F0E94FB000E94FE
:1002C000C4000E94EC00DF91CF911F910F91FF902D
:1002D0000895CF93C82F80ED0E949F0083E00E9475
:1002E000C4008C2F0E94FB000E94C4000E94EC00FE
:1002F000CF910895EF92FF920F931F93CF93DF93C7
:10030000EC018B017A0180ED0E949F0080E00E9449
:10031000C4000E94EC0081ED0E949F000E94D60064
:100320000E94F000F70180830E94D6000E94F00036
:10033000F80180830E94E1008F730E94F00088839F
:100340000E94EC00DF91CF911F910F91FF90EF90F1
:100350000895CF9380ED0E949F0083E00E94C40027
:100360000E94EC0081ED0E949F000E94E1008770D6
:100370000E94F000C82F0E94EC008C2FCF910895AE
:10038000399A8AB18B7D8AB98AB180658AB98AB176
:1003900083778AB9219A419A5C9A5E988BB18C686E
:1003A0008BB9E8E6F0E0808184608083EDE6F0E0E0
:1003B000808180628083E99AE9E6F0E0808188604C
:1003C000808380818B7F808308950F931F93CF93C9
:1003D000DF9304E912E0C1E0D0E0CE010E941B0BE4
:1003E000F80181938F012196C830D105B1F70CE84F
:1003F00012E0CE010E941B0BF80181938F01219620
:10040000CF30D105B1F705E812E0CE010E941B0BF9
:10041000F80181938F012196C631D105B1F786E1AC
:1004200090E00E941B0B80939302DF91CF911F916C
:100430000F91089547E050E061E070E084E992E0B8
:100440000E94230B47E050E068E070E08CE892E007
:100450000E94230B47E050E06FE070E085E892E0F7
:100460000E94230B6091930286E190E00E94330B7F
:100470000895E0E8F0E080818068808380818F7B50
:10048000808380818260808380818E7F8083E1E8A9
:10049000F0E08081806180838081886080838081BA
:1004A000816080838081897F80838FEF9FEF90932D
:1004B000870080938600109289001092880008952A
:1004C000CF93DF93E0E8F0E08081806880838081D3
:1004D0008F7B808380818D7F808380818E7F8083EE
:1004E000A1E8B0E08C918F7E8C938C91877F8C9368
:1004F000C2E8D0E0888180688883808182608083C0
:1005000080818E7F80838C9180618C938C918860B8
:100510008C93DF91CF910895E0E8F0E080818F77B0
:10052000808380818F7B8083089580918000881FE5
:100530008827881F0895ECE7F0E080818F7B808317
:1005400080818F7D80838081826080838081827FB3
:100550008083EAE7F0E0808187608083808188681B
:100560008083808180648083089589E190E0909306
:10057000C5008093C400E0ECF0E080818D7F808333
:10058000A1ECB0E08C9188618C93E2ECF0E080818A
:100590008F73808380818F7C80838081877F80833D
:1005A0008C918B7F8C938081866080830895E0ECB2
:1005B000F0E0908195FFFDCF8093C6000895CF9322
:1005C000DF93EC018881882331F021960E94D702C5
:1005D00089918111FBCFDF91CF910895EF92FF9226
:1005E0000F931F93CF93DF93CDB7DEB72A970FB644
:1005F000F894DEBF0FBECDBFF894419881E091E042
:100600000E94DF028CE091E00E94DF020E94E5017F
:100610008FE191E00E94DF0287E391E00E94DF0218
:1006200004E912E00F2EFBE9EF2EF2E0FF2EF02D91
:10063000F80181918F010E94D7028CE991E00E941C
:10064000DF02E016F106A1F782E491E00E94DF02EA
:100650000CE812E00F2EF3E9EF2EF2E0FF2EF02D62
:10066000F80181918F010E94D7028CE991E00E94EC
:10067000DF02E016F106A1F78EE491E00E94DF02AE
:1006800005E812E00F2EFCE8EF2EF2E0FF2EF02D31
:10069000F80181918F010E94D7028CE991E00E94BC
:1006A000DF020E151F05A1F78BE591E00E94DF0226
:1006B000809193020E94D70284E891E00E94DF02B9
:1006C0008DE691E00E94DF024CE952E06FE972E0B2
:1006D0008DE992E00E947A010E94A9018093A6020E
:1006E00087E891E00E94DF0280919D024AE0BE010E
:1006F0006F5F7F4F90E00E94E60ACE0101960E9454
:10070000DF0284E991E00E94DF0280919F024AE0CB
:10071000BE016F5F7F4F90E00E94E60ACE01019616
:100720000E94DF0289E991E00E94DF0280919C0231
:100730004AE0BE016F5F7F4F90E00E94E60ACE0163
:1007400001960E94DF028FE991E00E94DF02809112
:10075000A6024AE0BE016F5F7F4F90E00E94E60A6A
:10076000CE0101960E94DF0284E891E00E94DF0240
:1007700087EB91E00E94DF02EAE7F0E0808180648D
:100780008083808186FDFDCF8091780090917900F3
:100790004AE0BE016F5F7F4F0E94E60ACE010196DC
:1007A0000E94DF0284E891E00E94DF0284EC91E085
:1007B0000E94DF020E94600210928900109288005D
:1007C0002FEF3FEFE8E8F0E080819181019691837F
:1007D000808387EC90E00197F1F700C00000215082
:1007E000310991F789EF91E00E94DF020E948C02AB
:1007F0008FEF91E00E94DF02419A2A960FB6F8949B
:10080000DEBF0FBECDBFDF91CF911F910F91FF9043
:10081000EF900895CF93DF93E091A602F0E0DF011F
:10082000AB57BD4F3C9120919302432F421B445C38
:10083000532F521B87E0EF01C258DD4FDF01A45751
:10084000BD4FE958FD4F321728F49C919150988381
:10085000408303C09C91988350838150A1F7DF911E
:10086000CF910895CF92EF92FF920F931F93CF9362
:10087000DF93D82F162FF42EC22F0E94C0010E94A2
:100880009B004F2D612F8D2F0E940E014E2D602F4A
:100890008C2F90E00E942F018C2D0E946901DF9126
:1008A000CF911F910F91FF90EF90CF90089580917D
:1008B0009B02823009F452C028F4882351F0813021
:1008C00079F177C0833009F464C0843009F45DC0E5
:1008D00070C00E94C0010E94E5010E9439020E947E
:1008E0009B020E94B5020E949B004CE952E06FE916
:1008F00072E08DE992E00E947A010E94A901809342
:10090000A6020E940A04EFE6F0E080818160808305
:100910004F990E94EE02789481E080939B020895A3
:100920000E949502813011F40E948C028091750220
:1009300090917602029718F082E080939B0280915A
:100940007402882319F084E080939B0280917202E4
:10095000882389F183E080939B0208950E94950289
:10096000811102C00E94600280917502909176020E
:10097000029718F481E080939B028091740288238F
:10098000D1F084E080939B02089581E080939B02E4
:1009900008950E949502811102C00E946002809118
:1009A0007A0083FF08C0EAE7F0E08081877F8083D8
:1009B000089510929B020895CF93DF93CDB7DEB7D1
:1009C0002A970FB6F894DEBF0FBECDBFCC24C394D8
:1009D000EE24E39401E021EE42E36CE18CE00E941E
:1009E000320480919B024AE0BE016F5F7F4F90E02E
:1009F0000E94E60ACE0101960E94DF0281E0809308
:100A000095029CE090938D029EE1909386028093E4
:100A100093020E941A0280919B024AE0BE016F5F1E
:100A20007F4F90E00E94E60A85E692E00E94DF0296
:100A3000CE0101960E94DF0284E891E00E94DF026D
:100A40000E94570480919B024AE0BE016F5F7F4F76
:100A500090E00E94E60A85E692E00E94DF02CE0165
:100A600001960E94DF0284E891E00E94DF02E8CF55
:100A70001F920F920FB60F9211248F9380917202E2
:100A8000882321F081E08093710203C081E080938C
:100A900074028F910F900FBE0F901F9018951F92A8
:100AA0000F920FB60F9211248F935D9B04C081E0CB
:100AB0008093730202C0109273028F910F900FBE49
:100AC0000F901F9018951F920F920FB60F9211243E
:100AD000CF92DF92EF92FF922F933F934F935F93CA
:100AE0006F937F938F939F93AF93BF93EF93FF93F6
:100AF000809170028F5F809370028A3781F4109228
:100B000070024CE952E06FE972E08DE992E00E94D8
:100B10007A010E94A9018093A6020E940A04809192
:100B20007202811154C08091A60290E0FC01E2584B
:100B3000FD4F308120919D023213AAC0FC01E9587B
:100B4000FD4F308120919F023213A2C0FC01EC5670
:100B5000FD4F8081813009F09BC04A9B99C08093F2
:100B6000720210926C0210926D0210926E0210923C
:100B70006F021092890010928800609193022CE31A
:100B8000629FB0011124072E000C880B990B0E9464
:100B90003E082DEB37E346E85BE30E949B079B0191
:100BA000AC0160E070E080E897E40E949B076093EE
:100BB000A2027093A3028093A4029093A50283E003
:100BC00080939B0280917202882309F461C0809116
:100BD0007102882339F0109272021092710281E042
:100BE00080939B0280918800909189000196D1F0BA
:100BF0002091A2023091A3024091A4025091A5023B
:100C000060916C0270916D0280916E0290916F0202
:100C10000E942A0760936C0270936D0280936E02AB
:100C200090936F0220E030E040E859E360916C025D
:100C300070916D0280916E0290916F020E94EE0899
:100C40009B01AC0160E070E080E090E40E945B09F1
:100C500020E030E040E85FE30E9429076B017C015F
:100C600020E03FEF4FE757E40E94960788234CF4BB
:100C7000C701B6010E940D08709389006093880037
:100C80000CC08FEF9FEF909389008093880005C080
:100C9000EAE7F0E0808180648083FF91EF91BF916B
:100CA000AF919F918F917F916F915F914F913F9104
:100CB0002F91FF90EF90DF90CF900F900FBE0F908D
:100CC0001F9018951F920F920FB60F9211242F9319
:100CD0003F934F935F936F937F938F939F93AF93C4
:100CE000BF93EF93FF9360917800709179007093B8
:100CF00076026093750280E090E00E943C0820E05C
:100D000030E040E85CE30E94EE089B01AC0160E04B
:100D100070E080E090E40E945B0920E030E040E871
:100D20005FE30E9429070E940D0870938900609379
:100D30008800FF91EF91BF91AF919F918F917F912B
:100D40006F915F914F913F912F910F900FBE0F9038
:100D50001F9018951F920F920FB60F9211242F9388
:100D60003F934F935F936F937F938F939F93AF9333
:100D7000BF93EF93FF938091C60090910001992358
:100D800061F0982F96959695969590939E02877010
:100D90008093A1021092000105C08093A00281E01F
:100DA00080930001E0919E028E2F90E0FC0131972C
:100DB000E730F105D8F5EC5CFF4F0C94E00AE091C8
:100DC000A102F0E0EC56FD4F8091A002817080837B
:100DD0002DC08091A0028093930228C0E091A102CF
:100DE000F0E0E457FD4F8091A00280831FC0E091A6
:100DF000A102F0E0EB57FD4F8091A002808316C066
:100E000040919C0260919F028091A0020E940E017D
:100E10000DC040919C026091A00280919D020E94B1
:100E20000E0104C08091A0020E9469010E941A0272
:100E3000FF91EF91BF91AF919F918F917F916F91B2
:100E40005F914F913F912F910F900FBE0F901F9088
:100E500018955058BB27AA270E9441070C94B40844
:100E60000E94A60838F00E94AD0820F039F49F3F98
:100E700019F426F40C94A3080EF4E095E7FB0C9407
:100E80009D08E92F0E94C50858F3BA176207730737
:100E90008407950720F079F4A6F50C94E7080EF482
:100EA000E0950B2EBA2FA02D0B01B90190010C017A
:100EB000CA01A0011124FF27591B99F0593F50F492
:100EC000503E68F11A16F040A22F232F342F4427EA
:100ED000585FF3CF469537952795A795F0405395E2
:100EE000C9F77EF41F16BA0B620B730B840BBAF0B2
:100EF0009150A1F0FF0FBB1F661F771F881FC2F71D
:100F00000EC0BA0F621F731F841F48F48795779530
:100F10006795B795F7959E3F08F0B0CF9395880FEA
:100F200008F09927EE0F9795879508950E94790804
:100F300008F481E008950E94AF070C94B4080E9461
:100F4000AD0858F00E94A60840F029F45F3F29F050
:100F50000C949D0851110C94E8080C94A3080E946D
:100F6000C50868F39923B1F3552391F3951B550BED
:100F7000BB27AA2762177307840738F09F5F5F4F6C
:100F8000220F331F441FAA1FA9F335D00E2E3AF0AB
:100F9000E0E832D091505040E695001CCAF72BD0C3
:100FA000FE2F29D0660F771F881FBB1F2617370714
:100FB0004807AB07B0E809F0BB0B802DBF01FF2746
:100FC00093585F4F3AF09E3F510578F00C949D087E
:100FD0000C94E8085F3FE4F3983ED4F38695779548
:100FE0006795B795F7959F5FC9F7880F911D9695FF
:100FF000879597F90895E1E0660F771F881FBB1F5B
:10100000621773078407BA0720F0621B730B840B07
:10101000BA0BEE1F88F7E09508950E94CD0888F07E
:101020009F5798F0B92F9927B751B0F0E1F0660FAC
:10103000771F881F991F1AF0BA95C9F714C0B130ED
:1010400091F00E94E708B1E008950C94E708672F3B
:10105000782F8827B85F39F0B93FCCF3869577951C
:101060006795B395D9F73EF4909580957095619505
:101070007F4F8F4F9F4F0895E89409C097FB3EF430
:1010800090958095709561957F4F8F4F9F4F9923D5
:10109000A9F0F92F96E9BB279395F6958795779553
:1010A0006795B795F111F8CFFAF4BB0F11F460FF13
:1010B0001BC06F5F7F4F8F4F9F4F16C0882311F06B
:1010C00096E911C0772321F09EE8872F762F05C07F
:1010D000662371F096E8862F70E060E02AF09A951A
:1010E000660F771F881FDAF7880F9695879597F90F
:1010F0000895990F0008550FAA0BE0E8FEEF1616A9
:101100001706E807F907C0F012161306E407F507FB
:1011100098F0621B730B840B950B39F40A2661F06F
:10112000232B242B252B21F408950A2609F4A14012
:10113000A6958FEF811D811D089597F99F6780E81F
:1011400070E060E008959FEF80EC089500240A9419
:101150001616170618060906089500240A94121692
:101160001306140605060895092E0394000C11F4C5
:10117000882352F0BB0F40F4BF2B11F460FF04C072
:101180006F5F7F4F8F4F9F4F089557FD9058440FCB
:10119000551F59F05F3F71F04795880F97FB991FD6
:1011A00061F09F3F79F08795089512161306140693
:1011B000551FF2CF4695F1DF08C016161706180620
:1011C000991FF1CF86957105610508940895E894FB
:1011D000BB2766277727CB0197F908950E9401095D
:1011E0000C94B4080E94A60838F00E94AD0820F0C4
:1011F000952311F00C949D080C94A30811240C94D1
:10120000E8080E94C50870F3959FC1F3950F50E060
:10121000551F629FF001729FBB27F00DB11D639FA8
:10122000AA27F00DB11DAA1F649F6627B00DA11D4E
:10123000661F829F2227B00DA11D621F739FB00DF4
:10124000A11D621F839FA00D611D221F749F332764
:10125000A00D611D231F849F600D211D822F762FFD
:101260006A2F11249F5750409AF0F1F088234AF0DA
:10127000EE0FFF1FBB1F661F771F881F9150504046
:10128000A9F79E3F510580F00C949D080C94E80846
:101290005F3FE4F3983ED4F3869577956795B795CD
:1012A000F795E7959F5FC1F7FE2B880F911D9695E7
:1012B000879597F90895FA01EE0FFF1F30962105E3
:1012C0003105A1F16115710561F48038BFE39B0719
:1012D00049F168949038810561F08038BFEF9B0731
:1012E00041F099234AF5FF3FE1053105210519F148
:1012F000E8940894E795D901AA2329F4AB2FBE2FCF
:10130000F85FD0F310C0FF5F70F4A695E0F7F739EF
:1013100050F019F0FF3A38F49F779F930DD00F905B
:1013200007FC9058089546F00C94A30860E070E024
:1013300080E89FE308954FE79F775F934F933F9334
:101340002F930E94560A2F913F914F915F910E94D7
:10135000EE080C94B30929F416F00C949D080C9433
:10136000E7080C94A3080E94CD08A8F39638A0F7CC
:1013700007F80F92E8942BE33AEA48EB5FE70E9404
:1013800004090F920F920F924DB75EB70F920E9411
:101390009E0AE6E7F0E00E94E5094F915F91EF9128
:1013A000FF91E595EE1FFF1F49F0FE57E0684427C7
:1013B000EE0F441FFA95E1F74195550B0E94180A6C
:1013C0000F9007FE0C940C0A0895DF93CF931F93A0
:1013D0000F93FF92EF92DF927B018C01689406C01D
:1013E000DA2EEF010E940109FE01E894A5912591F2
:1013F000359145915591A6F3EF010E944107FE01F9
:101400009701A801DA9469F7DF90EF90FF900F91B0
:101410001F91CF91DF9108959B01AC0160E070E0D6
:1014200080E89FE30C949B070C949D080C94D20ACF
:101430000E94CD08D8F39923C9F3940F511DA3F34B
:101440009150504094F059F0882332F0660F771F86
:10145000881F91505040C1F79E3F51052CF7880FCF
:10146000911D9695879597F908955F3FACF0983E4A
:101470009CF0BB27869577956795B79508F4B16082
:101480009395C1F7BB0F58F711F460FFE8CF6F5F7A
:101490007F4F8F4F9F4FE3CF0C94E80816F00C94CA
:1014A000D20A0C94A30868940C949D080E94CD085D
:1014B000A8F39923C1F3AEF3DF93CF931F930F9358
:1014C000FF92C92FDD2788232AF02197660F771F07
:1014D000881FDAF720E030E040E85FEB9FE38839CF
:1014E00020F0803E38F021968F770E942A07EEE99F
:1014F000F0E004C00E942A07EBECF0E00E94E5094E
:101500008B01BE01EC01FB2E6F5771097595771F9A
:10151000880B990B0E943E0828E132E741E35FE324
:101520000E940109AF2D9801AE01FF900F911F910C
:10153000CF91DF910E9441070C94B408FA01DC01BD
:10154000AA0FBB1F9B01AC01BF5728F422273327EA
:101550004427507820C0B75190F4AB2F0024469513
:1015600037952795011CA395D2F3002071F0220F27
:10157000331F441FB395DAF30ED00C942907613062
:101580007105A0E88A07B94630F49B01AC016627D3
:10159000772788279078309621F020833183428303
:1015A000538308959F3F31F0915020F487957795AC
:1015B0006795B795880F911D9695879597F908952A
:1015C000EE0FFF1F0590F491E02D0994BB274A30E0
:1015D00031F4992322F4BDE2909581959F4F0C94AC
:1015E000F20ABB27FB015527AA27880F991FAA1FBC
:1015F000A41710F0A41B83955051B9F7A05DAA332E
:1016000008F0A95DA193009779F7B111B1931192F8
:10161000CB010C940B0BDC01FC01672F719177233C
:10162000E1F7329704C07C916D9370836291AE179D
:10163000BF07C8F30895F999FECF92BD81BDF89A0E
:10164000992780B50895DC01A40FB51F4150504083
:1016500048F0CB01840F951F2E910E94340B41500E
:101660005040D0F70895262FF999FECF92BD81BD45
:10167000F89A019700B4021639F01FBA20BD0FB6D0
:0E168000F894FA9AF99A0FBE0895F894FFCFE5
:10168E0001444542554747494E470A005265616439
:10169E00696E6720454550524F4D2E2E2E0A00443E
:1016AE006F6E650A53657474696E67732073746F19
:1016BE00726564203A0A00616C726D5F454E203D82
:1016CE0020000A616C726D5F6872203D20000A6115
:1016DE006C726D5F6D696E203D20000A616C726DDB
:1016EE005F6475726174696F6E203D20004765748A
:1016FE0074696E6720646174612066726F6D20522A
:10170E0054432E2E2E0A00446F6E650A54696D6581
:10171E00203A200068722C20006D696E2C20007318
:10172E0065632E0A446179206F66207468652077A0
:10173E0065656B203A20004144432076616C7565E7
:10174E00203A200054657374696E672050574D2CF3
:10175E002069742073686F756C642074616B6520EA
:10176E0061726F756E6420332E337320746F206632
:10177E006164652D696E2E0A00446F6E650A000A5B
:10178E00444542554747494E4720444F4E450A006F
:10179E0041540D0A0041542B554152543D002C31F9
:1017AE002C300D0A0041542B524F4C453D300D0A42
:1017BE000041542B504F4C41523D302C310D0A00FC
:1017CE0041542B4E414D453D0057616B6520757060
:1017DE00206C696768740041542B505357443D0088
:0C17EE0031323334005374617465200004
:00000001FF
