:100000000C9448000C945A000C945A000C945A001A
:100010000C945A000C945A000C945A000C945A00F8
:100020000C945A000C945F000C945A000C945A00E3
:100030000C945A000C945A000C945A000C945A00D8
:100040000C945A000C945A000C945A000C945A00C8
:100050000C945A000C945A000C945A000C945A00B8
:100060000C945A000C945A0007634236B79BD8A7E9
:100070001A39685618AEBAAB558C1D3CB7CC5763CD
:10008000BD6DEDFD753EF6177231BF000000803F7B
:1000900011241FBECFEFD8E0DEBFCDBF21E0A0E02E
:1000A000B1E001C01D92A030B207E1F70E94B40098
:1000B0000C9453040C9400000E940D0108951F92AB
:1000C0000F920FB60F9211242F933F934F935F938C
:1000D0006F937F938F939F93AF93BF93CF93DF9350
:1000E000EF93FF930E94D00082E00E94F600EC01A3
:1000F0000E94D600C330D105F0F00E944B01BE0132
:1001000080E090E00E94B10220E030E848EB52E449
:100110000E94D6010E94500220E030E040E85FE3F8
:100120000E9469010E948202CB010E94570183B79D
:10013000817F83BF06C00E94510183B7817F8660A3
:1001400083BFFF91EF91DF91CF91BF91AF919F91CD
:100150008F917F916F915F914F913F912F910F9070
:100160000FBE0F901F9018950E945C0083B78160AE
:1001700083BF889583B78E7F83BFF8CFE4E6F0E036
:1001800080818E7F808382E480937C0087E88093E7
:100190007A0010927B0084E080937E0080E00895D6
:1001A000EAE7F0E08081806880830895EAE7F0E084
:1001B00080818F7780830895ECE7F0E09081907FD5
:1001C00090839081892B8083EAE7F0E080818064CE
:1001D0008083089580917A0082958170089580913E
:1001E00078002091790090E0922B08950E94DC0025
:1001F0000E94EA008823E1F30E94EF00EAE7F0E0C2
:10020000208120612083089542980E94BE000895B5
:10021000219A29980E94380108958FEE80936400F6
:1002200084B114B885B19FEF95B987B1807887B94B
:1002300088B18F6788B98AB11AB88BB19BB940E091
:1002400060E881E690E00E94310187E083BF80E1B1
:1002500085BF78940E9404010E945C010E940801FD
:1002600008952FB7F894FC01608340832FBF089551
:10027000E4E6F0E08081877F808382E880938000DD
:1002800089E1809381008FEF9FEF909387008093A7
:10029000860080E00895E4E6F0E08081877F808337
:1002A0000895E4E6F0E0808188608083089590936B
:1002B0008900809388000895E4E6F0E080818F7BD8
:1002C000808387E08093B10081E08093700080E0BC
:1002D00008955058BB27AA270E9481010C942C0333
:1002E0000E941E0338F00E94250320F039F49F3F3E
:1002F00019F426F40C94F4020EF4E095E7FB0C9448
:10030000EE02E92F0E943D0358F3BA176207730704
:100310008407950720F079F4A6F50C945F030EF49A
:10032000E0950B2EBA2FA02D0B01B90190010C0105
:10033000CA01A0011124FF27591B99F0593F50F41D
:10034000503E68F11A16F040A22F232F342F442775
:10035000585FF3CF469537952795A795F04053956D
:10036000C9F77EF41F16BA0B620B730B840BBAF03D
:100370009150A1F0FF0FBB1F661F771F881FC2F7A8
:100380000EC0BA0F621F731F841F48F487957795BC
:100390006795B795F7959E3F08F0B0CF9395880F76
:1003A00008F09927EE0F9795879508950E94EA0126
:1003B0000C942C030E94250358F00E941E0340F069
:1003C00029F45F3F29F00C94EE0251110C94600364
:1003D0000C94F4020E943D0368F39923B1F3552372
:1003E00091F3951B550BBB27AA2762177307840748
:1003F00038F09F5F5F4F220F331F441FAA1FA9F3DE
:1004000035D00E2E3AF0E0E832D091505040E695CB
:10041000001CCAF72BD0FE2F29D0660F771F881F2C
:10042000BB1F261737074807AB07B0E809F0BB0B1F
:10043000802DBF01FF2793585F4F3AF09E3F510533
:1004400078F00C94EE020C9460035F3FE4F3983E66
:10045000D4F3869577956795B795F7959F5FC9F71C
:10046000880F911D9695879597F90895E1E0660F9D
:10047000771F881FBB1F621773078407BA0720F016
:10048000621B730B840BBA0BEE1F88F7E09508957F
:1004900029F416F00C94EE020C945F030C94F40211
:1004A0000E944503A8F39638A0F707F80F92E89446
:1004B0002BE33AEA48EB5FE70E94EE030F920F92BC
:1004C0000F924DB75EB70F920E94A803E8E6F0E0E6
:1004D0000E94F7024F915F91EF91FF91E595EE1F1A
:1004E000FF1F49F0FE57E0684427EE0F441FFA95BE
:1004F000E1F74195550B0E9472030F9007FE0C9493
:10050000660308950E94450388F09F5798F0B92F1D
:100510009927B751B0F0E1F0660F771F881F991F38
:100520001AF0BA95C9F714C0B13091F00E945F0378
:10053000B1E008950C945F03672F782F8827B85F88
:1005400039F0B93FCCF3869577956795B395D9F790
:100550003EF490958095709561957F4F8F4F9F4F9A
:100560000895E89409C097FB3EF4909580957095A6
:1005700061957F4F8F4F9F4F9923A9F0F92F96E9EF
:10058000BB279395F695879577956795B795F11164
:10059000F8CFFAF4BB0F11F460FF1BC06F5F7F4F01
:1005A0008F4F9F4F16C0882311F096E911C0772313
:1005B00021F09EE8872F762F05C0662371F096E81C
:1005C000862F70E060E02AF09A95660F771F881FEB
:1005D000DAF7880F9695879597F9089597F99F67A9
:1005E00080E870E060E008959FEF80EC0895DF936D
:1005F000CF931F930F93FF92EF92DF927B018C01B9
:10060000689406C0DA2EEF010E94EB03FE01E89425
:10061000A5912591359145915591A6F3EF010E9441
:100620008101FE019701A801DA9469F7DF90EF904C
:10063000FF900F911F91CF91DF91089500240A94AC
:100640001616170618060906089500240A941216AD
:100650001306140605060895092E0394000C11F4E0
:10066000882352F0BB0F40F4BF2B11F460FF04C08D
:100670006F5F7F4F8F4F9F4F089557FD9058440FE6
:10068000551F59F05F3F71F04795880F97FB991FF1
:1006900061F09F3F79F087950895121613061406AE
:1006A000551FF2CF4695F1DF08C01616170618063B
:1006B000991FF1CF86957105610508940895E89416
:1006C000BB2766277727CB0197F908959B01AC01DB
:1006D00060E070E080E89FE30C94D6010C94EE0299
:1006E0000C9445040E944503D8F39923C9F3940F51
:1006F000511DA3F39150504094F059F0882332F0EB
:10070000660F771F881F91505040C1F79E3F5105DB
:100710002CF7880F911D9695879597F908955F3F5F
:10072000ACF0983E9CF0BB27869577956795B7957A
:1007300008F4B1609395C1F7BB0F58F711F460FF4F
:10074000E8CF6F5F7F4F8F4F9F4FE3CF0C946003D5
:10075000FA01DC01AA0FBB1F9B01AC01BF5728F4B3
:10076000222733274427507820C0B75190F4AB2F6D
:100770000024469537952795011CA395D2F30020B8
:1007800071F0220F331F441FB395DAF30ED00C948F
:10079000690161307105A0E88A07B94630F49B0110
:1007A000AC016627772788279078309621F0208340
:1007B00031834283538308950E941E0338F00E94C0
:1007C000250320F0952311F00C94EE020C94F40212
:1007D00011240C9460030E943D0370F3959FC1F3B4
:1007E000950F50E0551F629FF001729FBB27F00DDF
:1007F000B11D639FAA27F00DB11DAA1F649F662734
:10080000B00DA11D661F829F2227B00DA11D621F82
:10081000739FB00DA11D621F839FA00D611D221F3C
:10082000749F3327A00D611D231F849F600D211D20
:10083000822F762F6A2F11249F5750409AF0F1F0A3
:1008400088234AF0EE0FFF1FBB1F661F771F881F0C
:1008500091505040A9F79E3F510580F00C94EE0254
:100860000C9460035F3FE4F3983ED4F3869577954C
:100870006795B795F795E7959F5FC1F7FE2B880FB2
:10088000911D9695879597F908959F3F31F0915066
:1008900020F4879577956795B795880F911D969564
:0A08A000879597F90895F894FFCFAB
:00000001FF
