S01A00004C69676874436F6E74726F6C6C657250574D2E73726563FA
S11300000C9475000C9487000C9487000C94870062
S11300100C9487000C9487000C9487000C94870040
S11300200C9487000C948C000C9487000C9487002B
S11300300C9487000C9487000C9487000C94870020
S11300400C9487000C9487000C9487000C94870010
S11300500C9487000C9487000C9487000C94870000
S11300600C9487000C94870007634236B79BD8A78B
S11300701A39685618AEBAAB558C1D3CB7CC5763C9
S1130080BD6DEDFD753EF6177231BF000000803F77
S113009008000000BE922449123EABAAAA2ABECD93
S11300A0CCCC4C3E00000080BEABAAAAAA3E000005
S11300B00000BF000000803F0000000000084178FD
S11300C0D3BB4387D1133D190E3CC3BD4282AD2B34
S11300D03E68EC8276BED98FE1A93E4C80EFFFBE2C
S11300E001C4FF7F3F000000000011241FBECFEFBA
S11300F0D8E0DEBFCDBF21E0A0E0B1E001C01D9299
S1130100A030B207E1F70E94ED000C9430050C9486
S113011000000E94460108951F920F920FB60F929D
S113012011242F933F934F935F936F937F938F93F8
S11301309F93AF93BF93CF93DF93EF93FF930E946B
S1130140090182E00E942F01EC010E940F01C330DB
S1130150D10550F10E948401BE0180E090E00E942C
S11301603E0220E030E040E85FE30E94A30120E08B
S113017030E040E85CE30E94CC029B01AC0160E00B
S113018070E080E090E40E94390320E030E040E831
S11301905FE30E94A2010E940F02CB010E94900122
S11301A083B7817F83BF06C00E948A0183B7817FA2
S11301B0866083BFFF91EF91DF91CF91BF91AF91A3
S11301C09F918F917F916F915F914F913F912F916B
S11301D00F900FBE0F901F9018950E94890083B74F
S11301E0816083BF889583B78E7F83BFF8CFE4E6B1
S11301F0F0E080818E7F808382E480937C0087E8B6
S113020080937A0010927B0084E080937E0080E0EB
S11302100895EAE7F0E08081806880830895EAE742
S1130220F0E080818F7780830895ECE7F0E090819F
S1130230907F90839081892B8083EAE7F0E080812E
S113024080648083089580917A00829581700895F6
S1130250809178002091790090E0922B08950E947B
S113026015010E9423018823E1F30E942801EAE793
S1130270F0E0208120612083089542980E94F700D5
S11302800895219A29980E94710108958FEE809310
S1130290640084B114B885B19FEF95B987B18078B3
S11302A087B988B18F6788B98AB11AB88BB19BB9FD
S11302B040E060E881E690E00E946A0187E083BF45
S11302C080E185BF78940E943D010E9495010E94BF
S11302D0410108952FB7F894FC01608340832FBF38
S11302E00895E4E6F0E08081877F808382E880934C
S11302F0800089E1809381008FEF9FEF90938700C6
S11303008093860080E00895E4E6F0E08081877FB2
S113031080830895E4E6F0E0808188608083089516
S113032090938900809388000895E4E6F0E080814A
S11303308F7B808387E08093B10081E0809370009D
S113034080E008955058BB27AA270E94BA010C9454
S113035092020E94840238F00E948B0220F039F449
S11303609F3F19F426F40C9481020EF4E095E7FB08
S11303700C947B02E92F0E94A30258F3BA17620778
S113038073078407950720F079F4A6F50C94C50249
S11303900EF4E0950B2EBA2FA02D0B01B90190019C
S11303A00C01CA01A0011124FF27591B99F0593FE0
S11303B050F4503E68F11A16F040A22F232F342F28
S11303C04427585FF3CF469537952795A795F04076
S11303D05395C9F77EF41F16BA0B620B730B840B8B
S11303E0BAF09150A1F0FF0FBB1F661F771F881F43
S11303F0C2F70EC0BA0F621F731F841F48F487959B
S113040077956795B795F7959E3F08F0B0CF93958C
S1130410880F08F09927EE0F9795879508950E9405
S1130420AB0288F09F5798F0B92F9927B751B0F0D5
S1130430E1F0660F771F881F991F1AF0BA95C9F764
S113044014C0B13091F00E94C502B1E008950C943B
S1130450C502672F782F8827B85F39F0B93FCCF3EE
S1130460869577956795B395D9F73EF490958095E1
S1130470709561957F4F8F4F9F4F0895E89409C001
S113048097FB3EF490958095709561957F4F8F4FC3
S11304909F4F9923A9F0F92F96E9BB279395F695D9
S11304A0879577956795B795F111F8CFFAF4BB0F57
S11304B011F460FF1BC06F5F7F4F8F4F9F4F16C0BB
S11304C0882311F096E911C0772321F09EE8872F45
S11304D0762F05C0662371F096E8862F70E060E001
S11304E02AF09A95660F771F881FDAF7880F96957A
S11304F0879597F9089597F99F6780E870E060E021
S113050008959FEF80EC089500240A9416161706A8
S113051018060906089500240A94121613061406F0
S113052005060895092E0394000C11F4882352F053
S1130530BB0F40F4BF2B11F460FF04C06F5F7F4F0B
S11305408F4F9F4F089557FD9058440F551F59F0F2
S11305505F3F71F04795880F97FB991F61F09F3FAC
S113056079F087950895121613061406551FF2CFD5
S11305704695F1DF08C0161617061806991FF1CF25
S113058086957105610508940895E894BB2766274C
S11305907727CB0197F908950E94DF020C94920209
S11305A00E94840238F00E948B0220F0952311F0FF
S11305B00C947B020C94810211240C94C6020E94B8
S11305C0A30270F3959FC1F3950F50E0551F629FEE
S11305D0F001729FBB27F00DB11D639FAA27F00D98
S11305E0B11DAA1F649F6627B00DA11D661F829FBF
S11305F02227B00DA11D621F739FB00DA11D621FA4
S1130600839FA00D611D221F749F3327A00D611DC0
S1130610231F849F600D211D822F762F6A2F1124A2
S11306209F5750409AF0F1F088234AF0EE0FFF1FD5
S1130630BB1F661F771F881F91505040A9F79E3F2C
S1130640510580F00C947B020C94C6025F3FE4F3E6
S1130650983ED4F3869577956795B795F795E79582
S11306609F5FC1F7FE2B880F911D9695879597F98B
S11306700895FA01EE0FFF1F309621053105A1F10F
S11306806115710561F48038BFE39B0749F16894F3
S11306909038810561F08038BFEF9B0741F09923C2
S11306A04AF5FF3FE1053105210519F1E894089465
S11306B0E795D901AA2329F4AB2FBE2FF85FD0F315
S11306C010C0FF5F70F4A695E0F7F73950F019F009
S11306D0FF3A38F49F779F930DD00F9007FC905802
S11306E0089546F00C94810260E070E080E89FE396
S11306F008954FE79F775F934F933F932F930E9403
S113070034042F913F914F915F910E94CC020C943D
S1130710910329F416F00C947B020C94C5020C94FA
S113072081020E94AB02A8F39638A0F707F80F9253
S1130730E8942BE33AEA48EB5FE70E94E2020F9267
S11307400F920F924DB75EB70F920E947C04E8E6B9
S1130750F0E00E94C3034F915F91EF91FF91E59503
S1130760EE1FFF1F49F0FE57E0684427EE0F441FB9
S1130770FA95E1F74195550B0E94F6030F9007FE99
S11307800C94EA030895DF93CF931F930F93FF9282
S1130790EF92DF927B018C01689406C0DA2EEF01A0
S11307A00E94DF02FE01E894A591259135914591BF
S11307B05591A6F3EF010E94BA01FE019701A80129
S11307C0DA9469F7DF90EF90FF900F911F91CF912A
S11307D0DF9108959B01AC0160E070E080E89FE345
S11307E00C94B0040C947B020C9422050E94AB027E
S11307F0D8F39923C9F3940F511DA3F3915050409A
S113080094F059F0882332F0660F771F881F9150B7
S11308105040C1F79E3F51052CF7880F911D9695C6
S1130820879597F908955F3FACF0983E9CF0BB27FD
S1130830869577956795B79508F4B1609395C1F758
S1130840BB0F58F711F460FFE8CF6F5F7F4F8F4FF6
S11308509F4FE3CF0C94C60216F00C9422050C941F
S1130860810268940C947B020E94AB02A8F3992342
S1130870C1F3AEF3DF93CF931F930F93FF92C92F6E
S1130880DD2788232AF02197660F771F881FDAF760
S113089020E030E040E85FEB9FE3883920F0803EC1
S11308A038F021968F770E94A301E0E9F0E004C0BC
S11308B00E94A301EDEBF0E00E94C3038B01BE0193
S11308C0EC01FB2E6F5771097595771F880B990BF7
S11308D00E94400228E132E741E35FE30E94DF0225
S11308E0AF2D9801AE01FF900F911F91CF91DF9131
S11308F00E94BA010C949202FA01DC01AA0FBB1FF8
S11309009B01AC01BF5728F4222733274427507892
S113091020C0B75190F4AB2F002446953795279506
S1130920011CA395D2F3002071F0220F331F441F42
S1130930B395DAF30ED00C94A20161307105A0E8EE
S11309408A07B94630F49B01AC01662777278827CC
S11309509078309621F02083318342835383089525
S11309600E94C4040C9492020E948B0258F00E94CC
S1130970840240F029F45F3F29F00C947B0251116A
S11309800C94C6020C9481020E94A30268F399237A
S1130990B1F3552391F3951B550BBB27AA27621777
S11309A07307840738F09F5F5F4F220F331F441F84
S11309B0AA1FA9F335D00E2E3AF0E0E832D09150B8
S11309C05040E695001CCAF72BD0FE2F29D0660FA5
S11309D0771F881FBB1F261737074807AB07B0E8E8
S11309E009F0BB0B802DBF01FF2793585F4F3AF0EE
S11309F09E3F510578F00C947B020C94C6025F3F35
S1130A00E4F3983ED4F3869577956795B795F79573
S1130A109F5FC9F7880F911D9695879597F908955B
S1130A20E1E0660F771F881FBB1F621773078407F7
S1130A30BA0720F0621B730B840BBA0BEE1F88F706
S1130A40E09508959F3F31F0915020F48795779574
S1130A506795B795880F911D9695879597F9089591
S1070A60F894FFCF34
S9030000FC
